:100000000C942A000C9447000C9447000C94470071
:100010000C9447000C9447000C9447000C94470044
:100020000C9447000C9447000C9447000C94470034
:100030000C9447000C9447000C9447000C94470024
:100040000C9447000C9447000C9447000C94470014
:100050000C94470011241FBECFE5D4E0DEBFCDBF16
:1000600011E0A0E6B0E0EEE1F0E202C005900D92F2
:10007000AE3EB107D9F711E0AEEEB1E001C01D927E
:10008000AE3FB107E1F70E9470060C940D100C947E
:100090000000FC01208181E090E0AC0102C0440F2F
:1000A000551F6A95E2F7BA01622B60830895FC013F
:1000B000208181E090E0AC0102C0440F551F6A9599
:1000C000E2F7BA016095622360830895FC01208104
:1000D00081E090E0AC0102C0440F551F6A95E2F741
:1000E000BA016227608308958FB5816A8FBD8EB58E
:1000F00089608EBD8FE790E09BBD8ABD99BD88BDAC
:10010000089590E099BD88BD662359F482E390E09C
:1001100063E00E94490082E390E062E00E945700A1
:10012000089582E390E063E00E94570082E390E04C
:1001300062E00E944900089590E09BBD8ABD66235D
:1001400059F482E390E066E00E94490082E390E087
:1001500067E00E945700089582E390E066E00E9405
:10016000570082E390E067E00E9449000895A9B338
:100170008A2F90E0AC01417050709A01220F331F1A
:10018000440F551F440F551F440F551F240F351F93
:10019000A1FF03C0E8E0F0E002C0E0E0F0E02E0FD5
:1001A0003F1F82FF03C0E6E0F0E002C0E0E0F0E0C5
:1001B0002E0F3F1F85FF03C06AEF7FEF02C060E094
:1001C00070E0620F731F86FF03C088EF9FEF02C0CD
:1001D00080E090E0680F791FAA231CF426EF3FEF20
:1001E00002C020E030E0260F371F932F990F990BA4
:1001F000492F592F692F792F892F089599234CF072
:1002000021E030E040E050E060E070E080E090E02D
:1002100008952FEF3FEF4FEF5FEF6FEF7FEF8FEF1F
:100220009FEF08957F928F929F92AF92BF92CF924D
:10023000DF92EF92FF920F931F93CF93DF93E22F02
:10024000F32FDF01BB2324F4AA27BB27AE1BBF0B70
:10025000E1E0A33CBE070CF4C9C00E94FE0001E02F
:100260000E945F07F22E132FD42FC52FE62EC72E24
:10027000A82E892E04E00E945F07722E7F18F1E0FD
:10028000271508F0F0E0232F211BE1E0321708F0DA
:10029000E0E0922E9F1A31E0291508F030E0E32BC0
:1002A000342F3D1B21E0431708F020E0B32EBE1A87
:1002B00041E03B1508F040E0242B452F4C1B31E07A
:1002C000541708F030E0D42ED21A21E04D1508F072
:1002D00020E0322B462F4E1921E0641708F020E071
:1002E000F42EF31A31E04F1508F030E0232B472F9E
:1002F0004C1931E0741708F030E0142F121B21E084
:10030000411708F020E0322B482F4A1921E08417CA
:1003100008F020E0D42FD31B81E04D1708F080E0D7
:10032000282BC92FC819C21B272D392D4B2D5D2D08
:100330006F2D712F8D2F9C2F04E00E945F07B22F2D
:10034000B719A1E02B1708F0A0E0E32FE919F1E0BD
:100350003E1708F0F0E03E2F3A1B21E0E31708F0CB
:1003600020E0F22BA42FAB19E1E04A1708F0E0E0FF
:100370004A2F4F1B21E0A41708F020E0E22BA52F05
:10038000AD19F1E05A1708F0F0E05A2F5E1B21E09A
:10039000A51708F020E0F22BA62FAF19E1E06A17AD
:1003A00008F0E0E06A2F6F1B21E0A61708F020E0BC
:1003B000E22BA72FA11BF1E07A1708F0F0E07A2FCB
:1003C0007E1B21E0A71708F020E0F22BA82FAD1B21
:1003D000E1E08A1708F0E0E08A2F8F1B21E0A817E0
:1003E00008F020E0E22B9C1B2B2F9E1BDF91CF916E
:1003F0001F910F91FF90EF90DF90CF90BF90AF9043
:100400009F908F907F9008952F923F924F925F928E
:100410006F927F928F929F92AF92BF92CF92DF9214
:10042000EF92FF920F931F93CF93DF93CDB7DEB779
:1004300061970FB6F894DEBF0FBECDBF288B398B06
:10044000942E852E762E672E582E392E02E00E948D
:100450005F07142FE32EF42EA52FE62FF72F482E3B
:100460004889420FB1E0421708F0B0E00989030F54
:1004700021E00E1508F020E0AB2EA00E31E0A01612
:1004800008F030E0232B0A2D190D31E01F1508F07C
:1004900030E0B22EB10E21E0B11608F020E0322B90
:1004A0001B2DB52FB80D21E0BA1708F020E0C32EA0
:1004B000CB0E31E0CB1608F030E0232BBC2DA62F5D
:1004C000A70D31E0AE1708F030E0D22EDA0E21E0B1
:1004D000DA1608F020E0322BAD2D760D7A8321E07C
:1004E0007F1708F020E0EA80E30E31E05A81E5163C
:1004F00008F030E0232BEA82850D8B8381E06B814D
:10050000641508F080E0FB80F20E21E07B81F71695
:1005100008F020E0822BFB82930D980F2091EE01D2
:100520008091EF015091F0016091F1017091F20121
:100530002090F3014090F401E091F501E983240F4C
:1005400031E0241708F030E08A0D41E0801708F010
:1005500040E0380F01E0381708F000E0402BB50EFE
:1005600051E0B11608F050E04B0D81E04B1508F05A
:1005700080E0582BC60E81E0CB1608F080E05C0DC1
:1005800061E05C1508F060E0862BD70E71E0DA16AA
:1005900008F070E0682F6D0D81E06D1508F080E0C7
:1005A000782BE20C81E0FA81EF1608F080E07E0DF6
:1005B000E1E07E1508F0E0E08E2BF40CE1E0AB8189
:1005C000FA1608F0E0E08F0DF1E08F1508F0F0E08A
:1005D000EF2BB9819B0F9E0F0E941201422E232EFA
:1005E00049835A836B837C838D839E832093EE01A2
:1005F0003093EF014093F0015093F1016093F201C9
:100600007093F3018093F4019093F5012091EC0035
:100610003091ED00932F990F990B492F592F692F86
:10062000792F892FA888B988C92CD82CE72CF62CCB
:10063000052D132D0E948C062F83388749875A87F2
:100640006B877D878E879C87A090E800B090E9003B
:100650001B2D110F110B242D322D49815A816B81D5
:100660007C818D819E81C12ED12EE12EF12E012F14
:100670000E948C06EF81E20FEF87E1E0FF852F817A
:10068000F21708F0E0E02884230E21E038852316D5
:1006900008F020E0E20DEE8331E0E21508F030E0F2
:1006A000232B2E80A985A40FA98331E0B985AB1730
:1006B00008F030E0E981E20FEF8321E0F981EF17E4
:1006C00008F020E0322B2F8129834A85450F4A8389
:1006D00021E05A85451708F020E0AA81A30FA887DA
:1006E00031E0BA81AB1708F030E0232BE885EA83CC
:1006F000FB85F60FFB8331E04B85F41708F030E003
:100700005B81520F598721E06B81561708F020E07A
:10071000322BA985AB83BD85B70FBC8321E0ED8566
:10072000BE1708F020E0FC81F30FFA8731E04C811E
:10073000F41708F030E0232B5A855C836E85680F30
:100740006D8381E07E85671708F080E0AD81A20FA0
:10075000AB8721E0BD81AB1708F020E0822BEB8551
:10076000ED83FC85F90FF80FFC879091EA008091EA
:10077000EB009D878E87482E440C44089091F6012B
:100780008091F7015091F801F091F9016091FA011F
:100790007091FB01E091FC01A091FD012889291BCA
:1007A00031E04889421708F030E09989981B81E0D0
:1007B000B989B91708F080E0492F431B342F41E075
:1007C000931708F040E0842B992D951B592F91E049
:1007D000951608F090E0452F481B81E0541708F06B
:1007E00080E0982BB82DBF1BFB2F81E08B1608F003
:1007F00080E05F2F591B91E0F51708F090E0892BFE
:10080000F72DF61B91E07F1608F090E06F2F681B24
:1008100081E0F61708F080E0982BF62DF71B81E0B9
:100820006F1608F080E07F2F791B91E0F71708F032
:1008300090E0892B952D9E1BE1E0591608F0E0E031
:10084000F92FF81B8F2FF1E0981708F0F0E0EF2B4D
:10085000932D9A1B9E1B0F2EF5E0AF2EF02DBB247F
:10086000CC24DD24EE24FF2400E010E00E94D90710
:10087000A22EB32EC42ED52EE62EF72E082F192F1A
:100880002D853E85442D542D642D742D842D942D5D
:100890000E948C06AF852A0F11E02A1708F010E09D
:1008A000AE81A30FE1E0A21508F0E0E0312F3A0F8E
:1008B000F1E03A1708F0F0E0EF2BFF81F40F11E0C0
:1008C000B981FB1708F010E04E2F4F0FE1E04F17F2
:1008D00008F0E0E01E2BE885E50FF1E05A81E5170E
:1008E00008F0F0E0512F5E0FA1E05E1708F0A0E0E5
:1008F000FA2B1985160FE1E06B81161708F0E0E07E
:100900006F2F610FF1E0611708F0F0E0EF2B1A850F
:10091000170FF1E07C81171708F0F0E07E2F710FC0
:10092000E1E0711708F0E0E0FE2B1B85180FE1E015
:100930008D81181708F0E0E08F2F810FF1E081170B
:1009400008F0F0E0EF2BAC859A0FB889B093F60170
:10095000F989F093F7019092F8018092F901709271
:10096000FA016092FB015092FC013092FD019E0F52
:1009700061960FB6F894DEBF0FBECDBFDF91CF9169
:100980001F910F91FF90EF90DF90CF90BF90AF90AD
:100990009F908F907F906F905F904F903F902F909F
:1009A00008951916C4F19923B1F48823A1F5882379
:1009B00091F4772381F5772371F4662361F566233B
:1009C00051F4552341F5552331F4442321F54423B3
:1009D00011F4332301F51916E4F09923F1F4882377
:1009E000C1F48823D1F47723A1F47723B1F46623EB
:1009F00081F4662391F4552361F4552371F4442363
:100A000041F4442351F4332321F4332331F42436C5
:100A100020F0822F08958FEF089584E608952F9295
:100A20003F924F925F926F927F928F929F92AF927E
:100A3000BF92CF92DF92EF92FF920F931F93CF93CB
:100A4000DF93222E432E342E552E662E772E882E9F
:100A5000C92F0F2EF4E6AF2EF02DBB24CC24DD24BD
:100A6000EE24FF2400E010E00E94D907D22F932E3D
:100A7000C42ED52EE62EF72E082F192F2091E20036
:100A80003091E300932F990F990B492F592F692F1C
:100A9000792F892FAD2EB92C0E948C060F2EF4E6EB
:100AA000AF2EF02DBB24CC24DD24EE24FF2400E067
:100AB00010E00E94D907122F032F1C160CF1CC2333
:100AC00009F056C08820E1F4882009F051C0772051
:100AD000B9F4772009F04CC0662091F4662009F043
:100AE00047C0552069F4552009F042C0332041F435
:100AF0003320F1F5442021F44420D1F52220C1F126
:100B00002D2F392DC901992324F488279927821B79
:100B1000930B2091E0003091E100280F391F932FB3
:100B2000990F990B492F592F692F792F892F0E94DF
:100B3000D10460E00E949C00212F302FC90199232D
:100B400024F488279927821B930B2091E000309191
:100B5000E100281B390B932F990F990B492F592F1F
:100B6000692F792F892F0E94D10460E00E948100B3
:100B7000CC23C4F5212F302FC901992324F48827D1
:100B80009927821B930B2091E0003091E100281BF4
:100B9000390B932F990F990B492F592F692F792FC3
:100BA000892F0E94D10460E00E949C002D2F392DD6
:100BB000C901992324F488279927821B930B20913C
:100BC000E0003091E100280F391F932F990F990B06
:100BD000492F592F692F792F892F0E94D10460E066
:100BE0000E94810042284328452846284728482853
:100BF0004C2A51F48091E00060E00E949C008091BA
:100C0000E00060E00E948100DF91CF911F910F9181
:100C1000FF90EF90DF90CF90BF90AF909F908F901C
:100C20007F906F905F904F903F902F900895CF935B
:100C3000DF93CDB7DEB7C058D0400FB6F894DEBF13
:100C40000FBECDBFDE011196E0E6F0E080E8019036
:100C50000D928150E1F7B19B02C028E001C020E075
:100C6000E6B3E470B39B02C092E001C090E081E083
:100C7000B49B80E0E80FE20FE90FF0E0EE0FFF1FFA
:100C8000EE0FFF1FEE0FFF1F81E090E08C0F9D1F06
:100C9000E80FF91F808191819093ED008093EC0023
:100CA000828193819093EB008093EA008481958107
:100CB0009093E9008093E80086818093E20010928F
:100CC000E30087818093E0001092E100C058DF4F7D
:100CD0000FB6F894DEBF0FBECDBFDF91CF91089560
:100CE0008FEF81BB1ABA17BA1BBA18BA12BA0E9490
:100CF000740081E082BBB099FECF8AEB82BB0E9478
:100D0000B7000E9404020E940F0581EE94E0019753
:100D1000F1F700C00000F3CFA0E3B0E0E2E9F6E0B5
:100D20000C94D80F298F3A8F4B8F5C8F6D8F7E8FED
:100D30008F8F98A3A98ABA8ACB8ADC8AED8AFE8A29
:100D40000F8B188F098D1A8D2B8D3C8D09A31AA33B
:100D50002BA33CA3680179018FEF9FEFA0E0B0E0E7
:100D6000C822D922EA22FB2289012227332709A798
:100D70001AA72BA73CA709891A892B893C890DA39F
:100D80001EA32FA338A74801590188229922AA221D
:100D9000BB22290166247724C501B401A70196016D
:100DA0000E94950F6DA77EA78FA798ABC301B201D4
:100DB0000E94950F6B017C01C501B40129A53AA5DC
:100DC0004BA55CA50E94950F4B015C01C301B201CC
:100DD0000E94950FAB01BC01C80CD91CEA1CFB1C7E
:100DE0000DA51EA52FA538A9C901AA27BB27C80E86
:100DF000D91EEA1EFB1EC814D904EA04FB0420F421
:100E0000405050406F4F7F4FC701AA27BB27840F28
:100E1000951FA61FB71F8D839E83AF83B88776016A
:100E2000DD24CC244DA55EA56FA578A960707070F7
:100E3000C40ED51EE61EF71EC982DA82EB82FC8242
:100E40001C2D0A818B804C808D878E818E878F81AF
:100E50008F878885888B2D893E894F89588D69A118
:100E60007AA18BA19CA10E94950F6B017C012D8D15
:100E70003E8D4F8D58A16DA17EA18FA198A50E9496
:100E8000950FDC01CB01C80ED91EEA1EFB1E8D8515
:100E90009E85AF85B8898C0D9D1DAE1DBF1D8D87AC
:100EA0009E87AF87B88B682F7E85212F302F482DE6
:100EB000542D8F859889E096E0E10C94F40FCF9241
:100EC000DF92EF92FF920F93CF93DF93CDB7DEB710
:100ED00060970FB6F894DEBF0FBECDBF002309F4B4
:100EE0005AC029873A874B875C876D877E878F87B3
:100EF000988B80E2801B49855A856B857C85181606
:100F0000B4F019821A821B821C82992787FD909562
:100F1000909581959F4F04C0440F551F661F771F02
:100F20008A95D2F74D835E836F8378872CC06A01E0
:100F30007B01002E04C0CC0CDD1CEE1CFF1C0A94AF
:100F4000D2F7C982DA82EB82FC826A017B0104C09B
:100F5000F694E794D794C7948A95D2F7D701C6013F
:100F60004D855E856F85788904C0440F551F661FC7
:100F7000771F0A95D2F7842B952BA62BB72B8D8341
:100F80009E83AF83B88729813A814B815C816D81D3
:100F90007E818F81988560960FB6F894DEBF0FBE74
:100FA000CDBFDF91CF910F91FF90EF90DF90CF9069
:100FB0000895A8E4B0E0EFEDF7E00C94D70FF50149
:100FC00029A33AA34BA35CA36DA37EA38FA398A7E9
:100FD000A98EFA8FCB8EDC8EED8EFE8E0F8F18A32E
:100FE0008DA09EA0AFA0B8A4B7FE67C02195B1E0C8
:100FF000121608F0B0E03195A1E0131608F0A0E059
:10100000B32EBB1ABB2D882483943B1508F088248B
:10101000A829419531E0141608F030E0B42EBA1A30
:10102000AB2D882483944B1508F0882438295195DA
:1010300041E0151608F040E0452E431A31E0541502
:1010400008F030E0432B619531E0161608F030E0EF
:10105000862E841A41E0681508F040E0342B719523
:1010600041E0171608F040E0572F531B31E0751789
:1010700008F030E0432B819531E0181608F030E09D
:10108000682F641B462F61E0841708F060E0362B60
:101090009195931B29A3BAA3ABA34CA28DA25EA3E7
:1010A0004FA398A78FEF9FEFAFEFBFEF25968CAFC1
:1010B0009DAFAEAFBFAF259706C025961CAE1DAE47
:1010C0001EAE1FAE25978D8D9E8DAF8DB8A1B7FF3B
:1010D00068C025962CAD3DAD4EAD5FAD25972095F2
:1010E00030954095509525962CAF3DAF4EAF5FAFF4
:1010F0002597E19581E01E1608F080E0F19591E0DA
:101100001F1608F090E04F2F481B81E0F41708F0FD
:1011100080E0982BC19481E01C1408F080E06C2DD5
:10112000691B91E0C61608F090E0892BD19491E0FC
:101130001D1408F090E05D2D581B81E0D51608F0D5
:1011400080E0982BE19481E01E1408F080E03E2DB1
:10115000391B91E0E31608F090E0892BF19491E0BF
:101160001F1408F090E02F2D281B81E0F21608F0E4
:1011700080E0982B019581E0101608F080E0702F38
:10118000791B972F71E0091708F070E0872B1195F4
:10119000181BE98F4A8F6B8F5C8F3D8F2E8F9F8F2F
:1011A00018A3798D6A8D5B8D4C8D3D8D2E8D9F8D15
:1011B00088A1E9A1E98BEAA1EA8BEBA1EB8BECA179
:1011C000EC8BEDA1ED8BEEA1EE8BEFA1EF8BE8A503
:1011D000E88F79876A875B874C873D872E879F8753
:1011E000888B89849A84AB84BC848D859E85AF85E9
:1011F000B889E988FA880B891C89EDAAFEAA0FAB89
:1012000018AFCD88DE88EF88F88C0097A105B1056E
:1012100009F0BDC3C814D904EA04FB0408F04DC1A9
:1012200000E0801600E0900601E0A00600E0B006B5
:1012300058F41FEF81169104A104B10409F090F451
:1012400080E090E0DC0117C020E0821620E09206EA
:1012500020E0A20621E0B20650F480E190E0A0E098
:10126000B0E009C088E090E0A0E0B0E004C088E110
:1012700090E0A0E0B0E0B501A401082E04C076958E
:101280006795579547950A94D2F7FA01E251FF4FB7
:10129000208140E250E060E070E0481B590B6A0B8F
:1012A0007B0B421B5109610971094115510561050B
:1012B0007105A1F1042E04C0880C991CAA1CBB1C4A
:1012C0000A94D2F797018601042E04C0000F111F63
:1012D000221F331F0A94D2F780E290E0841B950B03
:1012E000CDA8DEA8EFA8F8AC04C0F694E794D79494
:1012F000C7948A95D2F7C02AD12AE22AF32A0DA9E7
:101300001EA92FA938AD04C0000F111F221F331FC3
:101310004A95D2F70DAB1EAB2FAB38AF2501662433
:101320007724950184012070307009AB1AAB2BAB88
:101330003CABC701B601A30192010E94B40F2DA7D7
:101340003EA74FA758AB69A77AA78BA79CA7C70151
:10135000B601A30192010E94B40FCA01B90129A9E3
:101360003AA94BA95CA90E94950FAB01BC0109A544
:101370001AA52BA53CA57801DD24CC240DA91EA916
:101380002FA938ADC901AA27BB27C82AD92AEA2A1A
:10139000FB2A0DA51EA52FA538A9C416D506E6065D
:1013A000F70638F5015010402040304009A71AA731
:1013B0002BA73CA7C80CD91CEA1CFB1CC814D904D9
:1013C000EA04FB04D0F0C416D506E606F706A8F436
:1013D0000DA51EA52FA538A9025010402040304071
:1013E00009A71AA72BA73CA7C80CD91CEA1CFB1CF1
:1013F00004C009A71AA72BA73CA7C41AD50AE60A56
:10140000F70AC701B601A30192010E94B40F2DA7EC
:101410003EA74FA758AB69AF7AAF8BAF9CAFC70160
:10142000B601A30192010E94B40FCA01B90129A912
:101430003AA94BA95CA90E94950F6B017C0149ADAB
:101440005AAD6BAD7CAD9A01112700274DA95EA95D
:101450006FA978AD60707070042B152B262B372B7D
:101460008DA59EA5AFA5B8A90C151D052E053F0598
:10147000C0F40197A109B109080D191D2A1D3B1DD2
:10148000081519052A053B0560F00C151D052E05EC
:101490003F0538F48DA59EA5AFA5B8A90297A1096F
:1014A000B10909A51AA52BA53CA57801DD24CC24FA
:1014B000C82AD92AEA2AFB2AB7C481149104A104B4
:1014C000B10451F461E070E080E090E0A501940186
:1014D0000E94B40F49015A0110E0811610E09106F4
:1014E00011E0A10610E0B10658F42FEF8216910426
:1014F000A104B10409F090F480E090E0DC0117C091
:1015000030E0831630E0930630E0A30631E0B30606
:1015100050F480E190E0A0E0B0E009C088E090E005
:10152000A0E0B0E004C088E190E0A0E0B0E0B50148
:10153000A401082E04C076956795579547950A949F
:10154000D2F7FA01E251FF4F2081AC01BD01420FF9
:10155000511D611D711D80E290E0A0E0B0E0841B90
:10156000950BA60BB70B51F4C818D908EA08FB086D
:10157000F1E04F2E512C612C712C28C1082E04C093
:10158000880C991CAA1CBB1C0A94D2F797018601EF
:10159000042E04C036952795179507950A94D2F71F
:1015A00009AB1AAB2BAB3CAB97018601082E04C0EC
:1015B000000F111F221F331F0A94D2F70DA71EA779
:1015C0002FA738ABEDA8FEA80FA918AD04C016953B
:1015D0000795F794E7944A95D2F7B801A7010DA5AE
:1015E0001EA52FA538A9042B152B262B372B0DA7AD
:1015F0001EA72FA738ABEDA8FEA80FA918AD04C0F1
:10160000EE0CFF1C001F111F8A95D2F7EDAAFEAA4F
:101610000FAB18AF25016624772495018401207053
:10162000307009AF1AAF2BAF3CAF69A97AA98BA96B
:101630009CA9A30192010E94B40F29A73AA74BA726
:101640005CA76B017C0169A97AA98BA99CA9A3015C
:1016500092010E94B40FCA01B90129AD3AAD4BAD58
:101660005CAD0E94950FAB01BC017601DD24CC245A
:101670000DA51EA52FA538A9C901AA27BB27C82AD1
:10168000D92AEA2AFB2A09A51AA52BA53CA5C41626
:10169000D506E606F70638F50150104020403040E8
:1016A00009AB1AAB2BAB3CABC80CD91CEA1CFB1C1E
:1016B000C814D904EA04FB04D0F0C416D506E60623
:1016C000F706A8F409A51AA52BA53CA502501040C1
:1016D0002040304009AB1AAB2BAB3CABC80CD91C3B
:1016E000EA1CFB1C04C009AB1AAB2BAB3CABC41A05
:1016F000D50AE60AF70AC701B601A30192010E94C2
:10170000B40F29A73AA74BA75CA721966CAF7DAF72
:101710008EAF9FAF2197C701B601A30192010E942E
:10172000B40FCA01B90129AD3AAD4BAD5CAD0E9411
:10173000950F8B019C0121964CAD5DAD6EAD7FADDB
:101740002197DA01992788274DA55EA56FA578A96D
:1017500060707070842B952BA62BB72B49A55AA5CA
:101760006BA57CA580179107A207B307F0F4415041
:10177000504060407040880D991DAA1DBB1D881502
:101780009905AA05BB0588F080179107A207B30742
:1017900060F449A55AA56BA57CA542505040604015
:1017A0007040880D991DAA1DBB1D6C017D01C01ADA
:1017B000D10AE20AF30A09A91AA92BA93CA93801FE
:1017C00055244424442A552A662A772A850122274B
:1017D00033270DA71EA72FA738AB950184012070D2
:1017E000307009AF1AAF2BAF3CAFC701B6012DA5C2
:1017F0003EA54FA558A90E94B40F29A73AA74BA709
:101800005CA769AB7AAB8BAB9CABC701B6012DA5CE
:101810003EA54FA558A90E94B40FCA01B90129AD30
:101820003AAD4BAD5CAD0E94950FAB01BC0109A96F
:101830001AA92BA93CA97801DD24CC240DA91EA945
:101840002FA938ADC901AA27BB27C82AD92AEA2A55
:10185000FB2A09A51AA52BA53CA5C416D506E606A4
:10186000F70638F5015010402040304009AB1AAB64
:101870002BAB3CABC80CD91CEA1CFB1CC814D9040C
:10188000EA04FB04D0F0C416D506E606F706A8F471
:1018900009A51AA52BA53CA50250104020403040B8
:1018A00009AB1AAB2BAB3CABC80CD91CEA1CFB1C1C
:1018B00004C009AB1AAB2BAB3CABC41AD50AE60A81
:1018C000F70AC701B6012DA53EA54FA558A90E944C
:1018D000B40F29A73AA74BA75CA721966CAF7DAFA1
:1018E0008EAF9FAF2197C701B6012DA53EA54FA58D
:1018F00058A90E94B40FCA01B90129AD3AAD4BAD48
:101900005CAD0E94950F8B019C0121964CAD5DADA5
:101910006EAD7FAD2197DA01992788274DA95EA981
:101920006FA978AD60707070842B952BA62BB72BA8
:1019300049A55AA56BA57CA580179107A207B307F7
:10194000D0F44150504060407040880D991DAA1D50
:10195000BB1D88159905AA05BB0568F0801791077E
:10196000A207B30740F449A55AA56BA57CA5425030
:1019700050406040704009A91AA92BA93CA97801E0
:10198000DD24CC24C42AD52AE62AF72A50C2C81658
:10199000D906EA06FB0608F437C2803010E091074A
:1019A00011E0A10710E0B10750F48F3F9105A105A8
:1019B000B10509F088F400E010E0980116C080300D
:1019C00020E0920720E0A20721E0B20750F400E1F6
:1019D00010E020E030E009C008E010E020E030E056
:1019E00004C008E110E020E030E0AC01BD01002EB1
:1019F00004C076956795579547950A94D2F7FA01F2
:101A0000E251FF4F4081040F111D211D311D40E2A5
:101A100050E060E070E0401B510B620B730BA1F4CF
:101A20008C159D05AE05BF0508F4F5C1EDA8FEA80F
:101A30000FA918AD442455243201E814F9040A050D
:101A40001B0508F0EBC1E3C1342E2C013D0104C09D
:101A5000440C551C661C771C4A95D2F7D501C4016D
:101A6000002E04C0B695A795979587950A94D2F74E
:101A7000482A592A6A2A7B2AA5019401032C04C00A
:101A8000220F331F441F551F0A94D2F729AF3AAFD4
:101A90004BAF5CAFB701A601002E04C076956795E9
:101AA000579547950A94D2F749AB5AAB6BAB7CABD1
:101AB000C701B601032C04C0660F771F881F991F4A
:101AC0000A94D2F76DA77EA78FA798AB8DA99EA980
:101AD000AFA9B8AD04C0B695A795979587950A9517
:101AE000D2F74DA55EA56FA578A9482B592B6A2B77
:101AF0007B2B4DA75EA76FA778AB4301AA24BB241D
:101B0000930182012070307021960CAF1DAF2EAF73
:101B10003FAF219769A97AA98BA99CA9A501940136
:101B20000E94B40F29A73AA74BA75CA76B017C01C1
:101B300069A97AA98BA99CA9A50194010E94B40F57
:101B4000CA01B90121962CAD3DAD4EAD5FAD2197D7
:101B50000E94950FDC01CB017601DD24CC240DA57C
:101B60001EA52FA538A9A90166277727C42AD52A3B
:101B7000E62AF72A09A51AA52BA53CA5C816D90659
:101B8000EA06FB0638F5015010402040304009AB12
:101B90001AAB2BAB3CABC40CD51CE61CF71CC41415
:101BA000D504E604F704D0F0C816D906EA06FB0609
:101BB000A8F409A51AA52BA53CA502501040204069
:101BC000304009AB1AAB2BAB3CABC40CD51CE61CAC
:101BD000F71C04C009AB1AAB2BAB3CABC81AD90A33
:101BE000EA0AFB0AC701B601A50194010E94B40FDD
:101BF00029A73AA74BA75CA729966CAF7DAF8EAFFC
:101C00009FAF2997C701B601A50194010E94B40FA7
:101C1000CA01B90121962CAD3DAD4EAD5FAD219706
:101C20000E94950F4B015C0129964CAD5DAD6EADE8
:101C30007FAD29979A01112700278DA59EA5AFA5F5
:101C4000B8A9A070B070082B192B2A2B3B2B89A5A3
:101C50009AA5ABA5BCA5081519052A053B05E0F416
:101C60000197A109B109040D151D261D371D041585
:101C700015052605370580F0081519052A053B05C9
:101C800058F489A59AA5ABA5BCA50297A109B109ED
:101C9000040D151D261D371DB901A8014819590944
:101CA0006A097B094DA75EA76FA778AB09A91AA996
:101CB0002BA93CA97801DD24CC24C82AD92AEA2AF8
:101CC000FB2AFFEF8F2EFFEF9F2EA12CB12C8C2033
:101CD0009D20AE20BF2087012227332709A71AA7FE
:101CE0002BA73CA749AC5AAC6BAC7CAC2FEF3FEFB9
:101CF00040E050E0422253226422752229AD3AADE1
:101D00004BAD5CAD8A012227332709AB1AAB2BAB55
:101D10003CABC501B401A30192010E94950F69AFCC
:101D20007AAF8BAF9CAFC501B40129A93AA94BA9E1
:101D30005CA90E94950F4B015C0169A57AA58BA552
:101D40009CA5A30192010E94950F2B013C0169A55E
:101D50007AA58BA59CA529A93AA94BA95CA90E94A3
:101D6000950FAB01BC01840C951CA61CB71C09ADDA
:101D70001AAD2BAD3CADC901AA27BB27880E991E11
:101D8000AA1EBB1E84149504A604B70420F4405078
:101D900050406F4F7F4FC501AA27BB27840F951F67
:101DA000A61FB71F0DA51EA52FA538A9081719072F
:101DB0002A073B0718F180179107A207B307A1F57F
:101DC00054019924882489AD9AADABADBCADA07007
:101DD000B070880E991EAA1EBB1E4DA95EA96FA9E0
:101DE00078AD032C04C0440F551F661F771F0A945B
:101DF000D2F7481559056A057B05B0F40894C10867
:101E0000D108E108F10810C0442455243201CC2443
:101E1000DD2476010CC044245524320181E0C82E13
:101E2000D12CE12CF12C03C0442455243201FE01B5
:101E3000319688E0DF011D928A95E9F7C982DA823E
:101E4000EB82FC824D825E826F8278862C2D3A81F5
:101E50004B815C81642D7E818F8198852596ECACC9
:101E6000FDAC0EAD1FAD2597E114F1040105110580
:101E700009F456C02195E1E0121608F0E0E0319532
:101E8000F1E0131608F0F0E0032F0E1BE1E030172D
:101E900008F0E0E0FE2B4195E1E0141608F0E0E0E8
:101EA000142F1F1B31E0411708F030E0E32B519550
:101EB000F1E0151608F0F0E0B52FBE1B31E05B171E
:101EC00008F030E0F32B6195E1E0161608F0E0E051
:101ED000462E4F1A31E0641508F030E0E32B71957F
:101EE000F1E0171608F0F0E0A72FAE1B31E07A17EB
:101EF00008F030E0F32B8195E1E0181608F0E0E0FF
:101F0000F82EFF1AFF2D31E08F1508F030E0E32B9B
:101F10009195302F412F5B2F642D7A2F8F2F9E1B91
:101F2000C85BDF4FE1E10C94F30F629FD001739F18
:101F3000F001829FE00DF11D649FE00DF11D929F65
:101F4000F00D839FF00D749FF00D659FF00D9927A4
:101F5000729FB00DE11DF91F639FB00DE11DF91FC8
:101F6000BD01CF0111240895A1E21A2EAA1BBB1BAB
:101F7000FD010DC0AA1FBB1FEE1FFF1FA217B30755
:101F8000E407F50720F0A21BB30BE40BF50B661F6B
:101F9000771F881F991F1A9469F76095709580952F
:101FA00090959B01AC01BD01CF0108952F923F9206
:101FB0004F925F926F927F928F929F92AF92BF9259
:101FC000CF92DF92EF92FF920F931F93CF93DF9305
:101FD000CDB7DEB7CA1BDB0B0FB6F894DEBF0FBE62
:101FE000CDBF09942A88398848885F846E847D84AF
:101FF0008C849B84AA84B984C884DF80EE80FD80B1
:102000000C811B81AA81B981CE0FD11D0FB6F89426
:0E201000DEBF0FBECDBFED010895F894FFCFE7
:10201E00F4012C010A0019960A000000000019961E
:10202E0014000000000019961E0000000000199612
:10203E0028000000000019963200000000001996DA
:10204E003C000000000019964600000000001996A2
:10205E0050000000000019965A000000000019966A
:10206E0064000000000019966E0000000000199632
:10207E0078000000000019968200000000001996FA
:10208E008C000000000019969600000000001996C2
:10209E0096002800640005004C1D50C330750001E9
:1020AE0002020303030304040404040404040505E8
:1020BE0005050505050505050505050505050606C0
:1020CE0006060606060606060606060606060606A2
:1020DE000606060606060606060606060606070790
:1020EE000707070707070707070707070707070772
:1020FE000707070707070707070707070707070762
:10210E000707070707070707070707070707070751
:10211E00070707070707070707070707070708083F
:10212E000808080808080808080808080808080821
:10213E000808080808080808080808080808080811
:10214E000808080808080808080808080808080801
:10215E0008080808080808080808080808080808F1
:10216E0008080808080808080808080808080808E1
:10217E0008080808080808080808080808080808D1
:10218E0008080808080808080808080808080808C1
:0E219E000808080808080808080808080808C3
:00000001FF
